{"abi":[{"type":"constructor","inputs":[{"name":"_abtToken","type":"address","internalType":"address"},{"name":"_treasury","type":"address","internalType":"address"}],"stateMutability":"nonpayable"},{"type":"function","name":"abtToken","inputs":[],"outputs":[{"name":"","type":"address","internalType":"contract IERC20"}],"stateMutability":"view"},{"type":"function","name":"awardBounty","inputs":[{"name":"bountyId","type":"uint256","internalType":"uint256"},{"name":"winner","type":"address","internalType":"address"}],"outputs":[],"stateMutability":"nonpayable"},{"type":"function","name":"bounties","inputs":[{"name":"","type":"uint256","internalType":"uint256"}],"outputs":[{"name":"poster","type":"address","internalType":"address"},{"name":"amount","type":"uint256","internalType":"uint256"},{"name":"deadline","type":"uint256","internalType":"uint256"},{"name":"winner","type":"address","internalType":"address"},{"name":"status","type":"uint8","internalType":"enum BountyPayment.BountyStatus"},{"name":"issueId","type":"string","internalType":"string"}],"stateMutability":"view"},{"type":"function","name":"cancelBounty","inputs":[{"name":"bountyId","type":"uint256","internalType":"uint256"}],"outputs":[],"stateMutability":"nonpayable"},{"type":"function","name":"cancelFeeBps","inputs":[],"outputs":[{"name":"","type":"uint256","internalType":"uint256"}],"stateMutability":"view"},{"type":"function","name":"claimExpired","inputs":[{"name":"bountyId","type":"uint256","internalType":"uint256"}],"outputs":[],"stateMutability":"nonpayable"},{"type":"function","name":"createBounty","inputs":[{"name":"amount","type":"uint256","internalType":"uint256"},{"name":"deadlineTimestamp","type":"uint256","internalType":"uint256"},{"name":"issueId","type":"string","internalType":"string"}],"outputs":[{"name":"bountyId","type":"uint256","internalType":"uint256"}],"stateMutability":"nonpayable"},{"type":"function","name":"getBounty","inputs":[{"name":"bountyId","type":"uint256","internalType":"uint256"}],"outputs":[{"name":"poster","type":"address","internalType":"address"},{"name":"amount","type":"uint256","internalType":"uint256"},{"name":"deadline","type":"uint256","internalType":"uint256"},{"name":"winner","type":"address","internalType":"address"},{"name":"status","type":"uint8","internalType":"enum BountyPayment.BountyStatus"},{"name":"issueId","type":"string","internalType":"string"}],"stateMutability":"view"},{"type":"function","name":"isBountyActive","inputs":[{"name":"bountyId","type":"uint256","internalType":"uint256"}],"outputs":[{"name":"","type":"bool","internalType":"bool"}],"stateMutability":"view"},{"type":"function","name":"nextBountyId","inputs":[],"outputs":[{"name":"","type":"uint256","internalType":"uint256"}],"stateMutability":"view"},{"type":"function","name":"owner","inputs":[],"outputs":[{"name":"","type":"address","internalType":"address"}],"stateMutability":"view"},{"type":"function","name":"renounceOwnership","inputs":[],"outputs":[],"stateMutability":"nonpayable"},{"type":"function","name":"rescueTokens","inputs":[{"name":"token","type":"address","internalType":"address"},{"name":"amount","type":"uint256","internalType":"uint256"}],"outputs":[],"stateMutability":"nonpayable"},{"type":"function","name":"setCancelFee","inputs":[{"name":"newFeeBps","type":"uint256","internalType":"uint256"}],"outputs":[],"stateMutability":"nonpayable"},{"type":"function","name":"setTreasury","inputs":[{"name":"newTreasury","type":"address","internalType":"address"}],"outputs":[],"stateMutability":"nonpayable"},{"type":"function","name":"totalEscrowed","inputs":[],"outputs":[{"name":"","type":"uint256","internalType":"uint256"}],"stateMutability":"view"},{"type":"function","name":"transferOwnership","inputs":[{"name":"newOwner","type":"address","internalType":"address"}],"outputs":[],"stateMutability":"nonpayable"},{"type":"function","name":"treasury","inputs":[],"outputs":[{"name":"","type":"address","internalType":"address"}],"stateMutability":"view"},{"type":"event","name":"BountyAwarded","inputs":[{"name":"bountyId","type":"uint256","indexed":true,"internalType":"uint256"},{"name":"winner","type":"address","indexed":true,"internalType":"address"},{"name":"amount","type":"uint256","indexed":false,"internalType":"uint256"}],"anonymous":false},{"type":"event","name":"BountyCancelled","inputs":[{"name":"bountyId","type":"uint256","indexed":true,"internalType":"uint256"},{"name":"poster","type":"address","indexed":true,"internalType":"address"},{"name":"refundAmount","type":"uint256","indexed":false,"internalType":"uint256"},{"name":"feeAmount","type":"uint256","indexed":false,"internalType":"uint256"}],"anonymous":false},{"type":"event","name":"BountyClaimed","inputs":[{"name":"bountyId","type":"uint256","indexed":true,"internalType":"uint256"},{"name":"claimant","type":"address","indexed":true,"internalType":"address"},{"name":"amount","type":"uint256","indexed":false,"internalType":"uint256"}],"anonymous":false},{"type":"event","name":"BountyCreated","inputs":[{"name":"bountyId","type":"uint256","indexed":true,"internalType":"uint256"},{"name":"poster","type":"address","indexed":true,"internalType":"address"},{"name":"amount","type":"uint256","indexed":false,"internalType":"uint256"},{"name":"deadline","type":"uint256","indexed":false,"internalType":"uint256"},{"name":"issueId","type":"string","indexed":false,"internalType":"string"}],"anonymous":false},{"type":"event","name":"CancelFeeUpdated","inputs":[{"name":"oldFeeBps","type":"uint256","indexed":false,"internalType":"uint256"},{"name":"newFeeBps","type":"uint256","indexed":false,"internalType":"uint256"}],"anonymous":false},{"type":"event","name":"OwnershipTransferred","inputs":[{"name":"previousOwner","type":"address","indexed":true,"internalType":"address"},{"name":"newOwner","type":"address","indexed":true,"internalType":"address"}],"anonymous":false},{"type":"event","name":"TreasuryUpdated","inputs":[{"name":"oldTreasury","type":"address","indexed":true,"internalType":"address"},{"name":"newTreasury","type":"address","indexed":true,"internalType":"address"}],"anonymous":false},{"type":"error","name":"OwnableInvalidOwner","inputs":[{"name":"owner","type":"address","internalType":"address"}]},{"type":"error","name":"OwnableUnauthorizedAccount","inputs":[{"name":"account","type":"address","internalType":"address"}]},{"type":"error","name":"ReentrancyGuardReentrantCall","inputs":[]}],"bytecode":{"object":"0x60a060405260c860025560016003553480156200001a575f80fd5b5060405162001aa338038062001aa38339810160408190526200003d91620001bb565b33806200006457604051631e4fbdf760e01b81525f60048201526024015b60405180910390fd5b6200006f8162000150565b5060017f9b779b17422d0df92223018b32b4d1fa46e071723d6817e2486d003becc55f00556001600160a01b038216620000dc5760405162461bcd60e51b815260206004820152600d60248201526c24b73b30b634b2103a37b5b2b760991b60448201526064016200005b565b6001600160a01b038116620001275760405162461bcd60e51b815260206004820152601060248201526f496e76616c696420747265617375727960801b60448201526064016200005b565b6001600160a01b03918216608052600180546001600160a01b03191691909216179055620001f1565b5f80546001600160a01b038381166001600160a01b0319831681178455604051919092169283917f8be0079c531659141344cd1fd0a4f28419497f9722a3daafe3b4186f6b6457e09190a35050565b80516001600160a01b0381168114620001b6575f80fd5b919050565b5f8060408385031215620001cd575f80fd5b620001d8836200019f565b9150620001e8602084016200019f565b90509250929050565b6080516118686200023b5f395f8181610277015281816103a101528181610618015281816107330152818161078d01528181610b0e01528181610f54015261102a01526118685ff3fe608060405234801561000f575f80fd5b5060043610610111575f3560e01c8063dc2f87441161009e578063f0f442601161006e578063f0f4426014610243578063f2fde38b14610256578063f916823114610269578063f9ddf73a14610272578063fd14fad414610299575f80fd5b8063dc2f8744146101ef578063df54df9114610214578063e5e5dff11461021d578063ee8c4bbf14610230575f80fd5b8063715018a6116100e4578063715018a6146101805780638da5cb5b146101885780639ebb602414610198578063c2fffd6b146101bb578063d6442620146101ce575f80fd5b80630b422abe146101155780630fb844b51461012a578063573761981461013d57806361d027b314610150575b5f80fd5b6101286101233660046113cc565b6102a2565b005b6101286101383660046113fe565b6104b4565b61012861014b366004611428565b610729565b600154610163906001600160a01b031681565b6040516001600160a01b0390911681526020015b60405180910390f35b61012861091e565b5f546001600160a01b0316610163565b6101ab6101a63660046113cc565b610931565b6040519015158152602001610177565b6101286101c93660046113cc565b610977565b6101e16101dc366004611450565b610a0f565b604051908152602001610177565b6102026101fd3660046113cc565b610d55565b604051610177969594939291906114dd565b6101e160025481565b61012861022b3660046113cc565b610e25565b61020261023e3660046113cc565b61113d565b610128610251366004611576565b61122b565b610128610264366004611576565b6112cd565b6101e160055481565b6101637f000000000000000000000000000000000000000000000000000000000000000081565b6101e160035481565b6102aa611307565b5f81815260046020526040812090600382810154600160a01b900460ff16908111156102d8576102d86114c9565b146102fe5760405162461bcd60e51b81526004016102f59061158f565b60405180910390fd5b806002015442116103435760405162461bcd60e51b815260206004820152600f60248201526e139bdd08195e1c1a5c9959081e595d608a1b60448201526064016102f5565b60038101805460ff60a01b1916600360a01b1790556001810154600580545f9061036e9084906115ce565b90915550508054600182015460405163a9059cbb60e01b81526001600160a01b03928316600482015260248101919091527f00000000000000000000000000000000000000000000000000000000000000009091169063a9059cbb906044016020604051808303815f875af11580156103e9573d5f803e3d5ffd5b505050506040513d601f19601f8201168201806040525081019061040d91906115e7565b6104525760405162461bcd60e51b81526020600482015260166024820152751499599d5b99081d1c985b9cd9995c8819985a5b195960521b60448201526064016102f5565b805460018201546040519081526001600160a01b039091169083907f23c972d46b3251ae358ad69fb3761ef8f5c38c5131502ed9e9bde9b129da92159060200160405180910390a3506104b160015f8051602061181383398151915255565b50565b6104bc611307565b5f82815260046020526040812090600382810154600160a01b900460ff16908111156104ea576104ea6114c9565b146105075760405162461bcd60e51b81526004016102f59061158f565b80546001600160a01b031633148061052857505f546001600160a01b031633145b6105655760405162461bcd60e51b815260206004820152600e60248201526d139bdd08185d5d1a1bdc9a5e995960921b60448201526064016102f5565b6001600160a01b0382166105ac5760405162461bcd60e51b815260206004820152600e60248201526d24b73b30b634b2103bb4b73732b960911b60448201526064016102f5565b6003810180546001600160a01b0384166001600160a81b031990911617600160a01b1790556001810154600580545f906105e79084906115ce565b9091555050600181015460405163a9059cbb60e01b81526001600160a01b03848116600483015260248201929092527f00000000000000000000000000000000000000000000000000000000000000009091169063a9059cbb906044016020604051808303815f875af1158015610660573d5f803e3d5ffd5b505050506040513d601f19601f8201168201806040525081019061068491906115e7565b6106c65760405162461bcd60e51b8152602060048201526013602482015272105095081d1c985b9cd9995c8819985a5b1959606a1b60448201526064016102f5565b816001600160a01b0316837f6afd625dfd10339cc4a7ba296f32817ab16fb8582d48761227a714a33af363c0836001015460405161070691815260200190565b60405180910390a35061072560015f8051602061181383398151915255565b5050565b610731611322565b7f00000000000000000000000000000000000000000000000000000000000000006001600160a01b0316826001600160a01b031603610854576005546040516370a0823160e01b81523060048201525f91906001600160a01b037f000000000000000000000000000000000000000000000000000000000000000016906370a0823190602401602060405180830381865afa1580156107d2573d5f803e3d5ffd5b505050506040513d601f19601f820116820180604052508101906107f69190611606565b61080091906115ce565b9050808211156108525760405162461bcd60e51b815260206004820152601e60248201527f43616e6e6f7420776974686472617720657363726f7765642066756e6473000060448201526064016102f5565b505b816001600160a01b031663a9059cbb6108745f546001600160a01b031690565b6040516001600160e01b031960e084901b1681526001600160a01b039091166004820152602481018490526044016020604051808303815f875af11580156108be573d5f803e3d5ffd5b505050506040513d601f19601f820116820180604052508101906108e291906115e7565b6107255760405162461bcd60e51b815260206004820152600d60248201526c14995cd8dd594819985a5b1959609a1b60448201526064016102f5565b610926611322565b61092f5f61134e565b565b5f81815260046020526040812081600382810154600160a01b900460ff169081111561095f5761095f6114c9565b148015610970575080600201544211155b9392505050565b61097f611322565b6103e88111156109ca5760405162461bcd60e51b815260206004820152601660248201527546656520746f6f206869676820286d6178203130252960501b60448201526064016102f5565b600280549082905560408051828152602081018490527fd340c0f080e4cca9c52ebee8f0958e4090af20d82e04eb16cac9183797b388c9910160405180910390a15050565b5f610a18611307565b5f8511610a5c5760405162461bcd60e51b81526020600482015260126024820152710416d6f756e74206d757374206265203e20360741b60448201526064016102f5565b428411610aab5760405162461bcd60e51b815260206004820152601760248201527f446561646c696e65206d7573742062652066757475726500000000000000000060448201526064016102f5565b81610aec5760405162461bcd60e51b8152602060048201526011602482015270125cdcdd59481251081c995c5d5a5c9959607a1b60448201526064016102f5565b6040516323b872dd60e01b8152336004820152306024820152604481018690527f00000000000000000000000000000000000000000000000000000000000000006001600160a01b0316906323b872dd906064016020604051808303815f875af1158015610b5c573d5f803e3d5ffd5b505050506040513d601f19601f82011682018060405250810190610b8091906115e7565b610bc25760405162461bcd60e51b8152602060048201526013602482015272105095081d1c985b9cd9995c8819985a5b1959606a1b60448201526064016102f5565b60038054905f610bd18361161d565b909155506040805160c081018252338152602081018890529081018690525f60608201819052919250906080820190815260200184848080601f0160208091040260200160405190810160405280939291908181526020018383808284375f92018290525093909452505083815260046020908152604091829020845181546001600160a01b03199081166001600160a01b0392831617835592860151600183015592850151600282015560608501516003808301805494851692909516918217855560808701519295509193926001600160a81b0319161790600160a01b908490811115610cc257610cc26114c9565b021790555060a08201516004820190610cdb90826116cd565b509050508460055f828254610cf0919061178d565b9091555050604051339082907fa547297ad03713faf656a641aecdf5daadb092ef9e25c87a2bddf5df23416d1190610d2f9089908990899089906117a0565b60405180910390a3610d4d60015f8051602061181383398151915255565b949350505050565b600460208190525f9182526040909120805460018201546002830154600384015494840180546001600160a01b039485169693959294841693600160a01b900460ff16929190610da490611649565b80601f0160208091040260200160405190810160405280929190818152602001828054610dd090611649565b8015610e1b5780601f10610df257610100808354040283529160200191610e1b565b820191905f5260205f20905b815481529060010190602001808311610dfe57829003601f168201915b5050505050905086565b610e2d611307565b5f81815260046020526040812090600382810154600160a01b900460ff1690811115610e5b57610e5b6114c9565b14610e785760405162461bcd60e51b81526004016102f59061158f565b80546001600160a01b03163314610ebe5760405162461bcd60e51b815260206004820152600a6024820152692737ba103837b9ba32b960b11b60448201526064016102f5565b60038101805460ff60a01b1916600160a11b1790556001810154600580545f90610ee99084906115ce565b925050819055505f6127106002548360010154610f0691906117dc565b610f1091906117f3565b90505f818360010154610f2391906115ce565b905081156110025760015460405163a9059cbb60e01b81526001600160a01b039182166004820152602481018490527f00000000000000000000000000000000000000000000000000000000000000009091169063a9059cbb906044016020604051808303815f875af1158015610f9c573d5f803e3d5ffd5b505050506040513d601f19601f82011682018060405250810190610fc091906115e7565b6110025760405162461bcd60e51b8152602060048201526013602482015272119959481d1c985b9cd9995c8819985a5b1959606a1b60448201526064016102f5565b825460405163a9059cbb60e01b81526001600160a01b039182166004820152602481018390527f00000000000000000000000000000000000000000000000000000000000000009091169063a9059cbb906044016020604051808303815f875af1158015611072573d5f803e3d5ffd5b505050506040513d601f19601f8201168201806040525081019061109691906115e7565b6110db5760405162461bcd60e51b81526020600482015260166024820152751499599d5b99081d1c985b9cd9995c8819985a5b195960521b60448201526064016102f5565b825460408051838152602081018590526001600160a01b039092169186917f3f6601636736aadd1abec1cc8b31c674cf6e219856cb653eb7242f6a1fed3c4d910160405180910390a35050506104b160015f8051602061181383398151915255565b5f818152600460208190526040822080546001820154600283015460038401549484018054879687968796879660609692956001600160a01b0392831695919492831692600160a01b900460ff1691819061119790611649565b80601f01602080910402602001604051908101604052809291908181526020018280546111c390611649565b801561120e5780601f106111e55761010080835404028352916020019161120e565b820191905f5260205f20905b8154815290600101906020018083116111f157829003601f168201915b505050505090509650965096509650965096505091939550919395565b611233611322565b6001600160a01b03811661127c5760405162461bcd60e51b815260206004820152601060248201526f496e76616c696420747265617375727960801b60448201526064016102f5565b600180546001600160a01b038381166001600160a01b0319831681179093556040519116919082907f4ab5be82436d353e61ca18726e984e561f5c1cc7c6d38b29d2553c790434705a905f90a35050565b6112d5611322565b6001600160a01b0381166112fe57604051631e4fbdf760e01b81525f60048201526024016102f5565b6104b18161134e565b61130f61139d565b60025f8051602061181383398151915255565b5f546001600160a01b0316331461092f5760405163118cdaa760e01b81523360048201526024016102f5565b5f80546001600160a01b038381166001600160a01b0319831681178455604051919092169283917f8be0079c531659141344cd1fd0a4f28419497f9722a3daafe3b4186f6b6457e09190a35050565b5f805160206118138339815191525460020361092f57604051633ee5aeb560e01b815260040160405180910390fd5b5f602082840312156113dc575f80fd5b5035919050565b80356001600160a01b03811681146113f9575f80fd5b919050565b5f806040838503121561140f575f80fd5b8235915061141f602084016113e3565b90509250929050565b5f8060408385031215611439575f80fd5b611442836113e3565b946020939093013593505050565b5f805f8060608587031215611463575f80fd5b8435935060208501359250604085013567ffffffffffffffff80821115611488575f80fd5b818701915087601f83011261149b575f80fd5b8135818111156114a9575f80fd5b8860208285010111156114ba575f80fd5b95989497505060200194505050565b634e487b7160e01b5f52602160045260245ffd5b5f60018060a01b038089168352602088602085015287604085015281871660608501526004861061151c57634e487b7160e01b5f52602160045260245ffd5b85608085015260c060a0850152845191508160c08501525f5b828110156115515785810182015185820160e001528101611535565b50505f60e0828501015260e0601f19601f830116840101915050979650505050505050565b5f60208284031215611586575f80fd5b610970826113e3565b602080825260119082015270426f756e7479206e6f742061637469766560781b604082015260600190565b634e487b7160e01b5f52601160045260245ffd5b818103818111156115e1576115e16115ba565b92915050565b5f602082840312156115f7575f80fd5b81518015158114610970575f80fd5b5f60208284031215611616575f80fd5b5051919050565b5f6001820161162e5761162e6115ba565b5060010190565b634e487b7160e01b5f52604160045260245ffd5b600181811c9082168061165d57607f821691505b60208210810361167b57634e487b7160e01b5f52602260045260245ffd5b50919050565b601f8211156116c857805f5260205f20601f840160051c810160208510156116a65750805b601f840160051c820191505b818110156116c5575f81556001016116b2565b50505b505050565b815167ffffffffffffffff8111156116e7576116e7611635565b6116fb816116f58454611649565b84611681565b602080601f83116001811461172e575f84156117175750858301515b5f19600386901b1c1916600185901b178555611785565b5f85815260208120601f198616915b8281101561175c5788860151825594840194600190910190840161173d565b508582101561177957878501515f19600388901b60f8161c191681555b505060018460011b0185555b505050505050565b808201808211156115e1576115e16115ba565b84815283602082015260606040820152816060820152818360808301375f818301608090810191909152601f909201601f191601019392505050565b80820281158282048414176115e1576115e16115ba565b5f8261180d57634e487b7160e01b5f52601260045260245ffd5b50049056fe9b779b17422d0df92223018b32b4d1fa46e071723d6817e2486d003becc55f00a264697066735822122076bd4dda919721bff211ae62d342b3fda3e205152af2350083229ecb89db1a2564736f6c63430008180033","linkReferences":{}},"methodIdentifiers":{"abtToken()":"f9ddf73a","awardBounty(uint256,address)":"0fb844b5","bounties(uint256)":"dc2f8744","cancelBounty(uint256)":"e5e5dff1","cancelFeeBps()":"df54df91","claimExpired(uint256)":"0b422abe","createBounty(uint256,uint256,string)":"d6442620","getBounty(uint256)":"ee8c4bbf","isBountyActive(uint256)":"9ebb6024","nextBountyId()":"fd14fad4","owner()":"8da5cb5b","renounceOwnership()":"715018a6","rescueTokens(address,uint256)":"57376198","setCancelFee(uint256)":"c2fffd6b","setTreasury(address)":"f0f44260","totalEscrowed()":"f9168231","transferOwnership(address)":"f2fde38b","treasury()":"61d027b3"},"id":30}