{"abi":[{"type":"constructor","inputs":[{"name":"_treasury","type":"address","internalType":"address"}],"stateMutability":"nonpayable"},{"type":"function","name":"AGENT_DEPOSIT","inputs":[],"outputs":[{"name":"","type":"uint256","internalType":"uint256"}],"stateMutability":"view"},{"type":"function","name":"FAUCET_AMOUNT","inputs":[],"outputs":[{"name":"","type":"uint256","internalType":"uint256"}],"stateMutability":"view"},{"type":"function","name":"FAUCET_COOLDOWN","inputs":[],"outputs":[{"name":"","type":"uint256","internalType":"uint256"}],"stateMutability":"view"},{"type":"function","name":"allowance","inputs":[{"name":"owner","type":"address","internalType":"address"},{"name":"spender","type":"address","internalType":"address"}],"outputs":[{"name":"","type":"uint256","internalType":"uint256"}],"stateMutability":"view"},{"type":"function","name":"approve","inputs":[{"name":"spender","type":"address","internalType":"address"},{"name":"value","type":"uint256","internalType":"uint256"}],"outputs":[{"name":"","type":"bool","internalType":"bool"}],"stateMutability":"nonpayable"},{"type":"function","name":"balanceOf","inputs":[{"name":"account","type":"address","internalType":"address"}],"outputs":[{"name":"","type":"uint256","internalType":"uint256"}],"stateMutability":"view"},{"type":"function","name":"burn","inputs":[{"name":"amount","type":"uint256","internalType":"uint256"}],"outputs":[],"stateMutability":"nonpayable"},{"type":"function","name":"decimals","inputs":[],"outputs":[{"name":"","type":"uint8","internalType":"uint8"}],"stateMutability":"view"},{"type":"function","name":"depositForAgent","inputs":[{"name":"ensName","type":"string","internalType":"string"}],"outputs":[],"stateMutability":"nonpayable"},{"type":"function","name":"faucet","inputs":[],"outputs":[],"stateMutability":"nonpayable"},{"type":"function","name":"faucetStatus","inputs":[{"name":"user","type":"address","internalType":"address"}],"outputs":[{"name":"available","type":"bool","internalType":"bool"},{"name":"nextAvailable","type":"uint256","internalType":"uint256"}],"stateMutability":"view"},{"type":"function","name":"lastFaucetCall","inputs":[{"name":"","type":"address","internalType":"address"}],"outputs":[{"name":"","type":"uint256","internalType":"uint256"}],"stateMutability":"view"},{"type":"function","name":"mint","inputs":[{"name":"to","type":"address","internalType":"address"},{"name":"amount","type":"uint256","internalType":"uint256"}],"outputs":[],"stateMutability":"nonpayable"},{"type":"function","name":"name","inputs":[],"outputs":[{"name":"","type":"string","internalType":"string"}],"stateMutability":"view"},{"type":"function","name":"owner","inputs":[],"outputs":[{"name":"","type":"address","internalType":"address"}],"stateMutability":"view"},{"type":"function","name":"renounceOwnership","inputs":[],"outputs":[],"stateMutability":"nonpayable"},{"type":"function","name":"setTreasury","inputs":[{"name":"newTreasury","type":"address","internalType":"address"}],"outputs":[],"stateMutability":"nonpayable"},{"type":"function","name":"symbol","inputs":[],"outputs":[{"name":"","type":"string","internalType":"string"}],"stateMutability":"view"},{"type":"function","name":"totalFaucetDistributed","inputs":[],"outputs":[{"name":"","type":"uint256","internalType":"uint256"}],"stateMutability":"view"},{"type":"function","name":"totalSupply","inputs":[],"outputs":[{"name":"","type":"uint256","internalType":"uint256"}],"stateMutability":"view"},{"type":"function","name":"transfer","inputs":[{"name":"to","type":"address","internalType":"address"},{"name":"value","type":"uint256","internalType":"uint256"}],"outputs":[{"name":"","type":"bool","internalType":"bool"}],"stateMutability":"nonpayable"},{"type":"function","name":"transferFrom","inputs":[{"name":"from","type":"address","internalType":"address"},{"name":"to","type":"address","internalType":"address"},{"name":"value","type":"uint256","internalType":"uint256"}],"outputs":[{"name":"","type":"bool","internalType":"bool"}],"stateMutability":"nonpayable"},{"type":"function","name":"transferOwnership","inputs":[{"name":"newOwner","type":"address","internalType":"address"}],"outputs":[],"stateMutability":"nonpayable"},{"type":"function","name":"treasury","inputs":[],"outputs":[{"name":"","type":"address","internalType":"address"}],"stateMutability":"view"},{"type":"event","name":"AgentDeposit","inputs":[{"name":"user","type":"address","indexed":true,"internalType":"address"},{"name":"ensName","type":"string","indexed":false,"internalType":"string"},{"name":"amount","type":"uint256","indexed":false,"internalType":"uint256"}],"anonymous":false},{"type":"event","name":"Approval","inputs":[{"name":"owner","type":"address","indexed":true,"internalType":"address"},{"name":"spender","type":"address","indexed":true,"internalType":"address"},{"name":"value","type":"uint256","indexed":false,"internalType":"uint256"}],"anonymous":false},{"type":"event","name":"FaucetUsed","inputs":[{"name":"user","type":"address","indexed":true,"internalType":"address"},{"name":"amount","type":"uint256","indexed":false,"internalType":"uint256"}],"anonymous":false},{"type":"event","name":"OwnershipTransferred","inputs":[{"name":"previousOwner","type":"address","indexed":true,"internalType":"address"},{"name":"newOwner","type":"address","indexed":true,"internalType":"address"}],"anonymous":false},{"type":"event","name":"Transfer","inputs":[{"name":"from","type":"address","indexed":true,"internalType":"address"},{"name":"to","type":"address","indexed":true,"internalType":"address"},{"name":"value","type":"uint256","indexed":false,"internalType":"uint256"}],"anonymous":false},{"type":"event","name":"TreasuryUpdated","inputs":[{"name":"oldTreasury","type":"address","indexed":true,"internalType":"address"},{"name":"newTreasury","type":"address","indexed":true,"internalType":"address"}],"anonymous":false},{"type":"error","name":"ERC20InsufficientAllowance","inputs":[{"name":"spender","type":"address","internalType":"address"},{"name":"allowance","type":"uint256","internalType":"uint256"},{"name":"needed","type":"uint256","internalType":"uint256"}]},{"type":"error","name":"ERC20InsufficientBalance","inputs":[{"name":"sender","type":"address","internalType":"address"},{"name":"balance","type":"uint256","internalType":"uint256"},{"name":"needed","type":"uint256","internalType":"uint256"}]},{"type":"error","name":"ERC20InvalidApprover","inputs":[{"name":"approver","type":"address","internalType":"address"}]},{"type":"error","name":"ERC20InvalidReceiver","inputs":[{"name":"receiver","type":"address","internalType":"address"}]},{"type":"error","name":"ERC20InvalidSender","inputs":[{"name":"sender","type":"address","internalType":"address"}]},{"type":"error","name":"ERC20InvalidSpender","inputs":[{"name":"spender","type":"address","internalType":"address"}]},{"type":"error","name":"OwnableInvalidOwner","inputs":[{"name":"owner","type":"address","internalType":"address"}]},{"type":"error","name":"OwnableUnauthorizedAccount","inputs":[{"name":"account","type":"address","internalType":"address"}]}],"bytecode":{"object":"0x608060405234801562000010575f80fd5b5060405162002659380380620026598339818101604052810190620000369190620005f8565b336040518060400160405280601181526020017f4167656e744272616e636820546f6b656e0000000000000000000000000000008152506040518060400160405280600381526020017f41425400000000000000000000000000000000000000000000000000000000008152508160039081620000b491906200088c565b508060049081620000c691906200088c565b5050505f73ffffffffffffffffffffffffffffffffffffffff168173ffffffffffffffffffffffffffffffffffffffff16036200013c575f6040517f1e4fbdf700000000000000000000000000000000000000000000000000000000815260040162000133919062000981565b60405180910390fd5b6200014d816200022260201b60201c565b505f73ffffffffffffffffffffffffffffffffffffffff168173ffffffffffffffffffffffffffffffffffffffff1603620001bf576040517f08c379a0000000000000000000000000000000000000000000000000000000008152600401620001b690620009fa565b60405180910390fd5b8060065f6101000a81548173ffffffffffffffffffffffffffffffffffffffff021916908373ffffffffffffffffffffffffffffffffffffffff1602179055506200021b3369152d02c7e14af6800000620002e560201b60201c565b5062000ae8565b5f60055f9054906101000a900473ffffffffffffffffffffffffffffffffffffffff1690508160055f6101000a81548173ffffffffffffffffffffffffffffffffffffffff021916908373ffffffffffffffffffffffffffffffffffffffff1602179055508173ffffffffffffffffffffffffffffffffffffffff168173ffffffffffffffffffffffffffffffffffffffff167f8be0079c531659141344cd1fd0a4f28419497f9722a3daafe3b4186f6b6457e060405160405180910390a35050565b5f73ffffffffffffffffffffffffffffffffffffffff168273ffffffffffffffffffffffffffffffffffffffff160362000358575f6040517fec442f050000000000000000000000000000000000000000000000000000000081526004016200034f919062000981565b60405180910390fd5b6200036b5f83836200036f60201b60201c565b5050565b5f73ffffffffffffffffffffffffffffffffffffffff168373ffffffffffffffffffffffffffffffffffffffff1603620003c3578060025f828254620003b6919062000a47565b9250508190555062000494565b5f805f8573ffffffffffffffffffffffffffffffffffffffff1673ffffffffffffffffffffffffffffffffffffffff1681526020019081526020015f20549050818110156200044f578381836040517fe450d38c000000000000000000000000000000000000000000000000000000008152600401620004469392919062000a92565b60405180910390fd5b8181035f808673ffffffffffffffffffffffffffffffffffffffff1673ffffffffffffffffffffffffffffffffffffffff1681526020019081526020015f2081905550505b5f73ffffffffffffffffffffffffffffffffffffffff168273ffffffffffffffffffffffffffffffffffffffff1603620004dd578060025f828254039250508190555062000527565b805f808473ffffffffffffffffffffffffffffffffffffffff1673ffffffffffffffffffffffffffffffffffffffff1681526020019081526020015f205f82825401925050819055505b8173ffffffffffffffffffffffffffffffffffffffff168373ffffffffffffffffffffffffffffffffffffffff167fddf252ad1be2c89b69c2b068fc378daa952ba7f163c4a11628f55a4df523b3ef8360405162000586919062000acd565b60405180910390a3505050565b5f80fd5b5f73ffffffffffffffffffffffffffffffffffffffff82169050919050565b5f620005c28262000597565b9050919050565b620005d481620005b6565b8114620005df575f80fd5b50565b5f81519050620005f281620005c9565b92915050565b5f6020828403121562000610576200060f62000593565b5b5f6200061f84828501620005e2565b91505092915050565b5f81519050919050565b7f4e487b71000000000000000000000000000000000000000000000000000000005f52604160045260245ffd5b7f4e487b71000000000000000000000000000000000000000000000000000000005f52602260045260245ffd5b5f6002820490506001821680620006a457607f821691505b602082108103620006ba57620006b96200065f565b5b50919050565b5f819050815f5260205f209050919050565b5f6020601f8301049050919050565b5f82821b905092915050565b5f600883026200071e7fffffffffffffffffffffffffffffffffffffffffffffffffffffffffffffffff82620006e1565b6200072a8683620006e1565b95508019841693508086168417925050509392505050565b5f819050919050565b5f819050919050565b5f620007746200076e620007688462000742565b6200074b565b62000742565b9050919050565b5f819050919050565b6200078f8362000754565b620007a76200079e826200077b565b848454620006ed565b825550505050565b5f90565b620007bd620007af565b620007ca81848462000784565b505050565b5b81811015620007f157620007e55f82620007b3565b600181019050620007d0565b5050565b601f82111562000840576200080a81620006c0565b6200081584620006d2565b8101602085101562000825578190505b6200083d6200083485620006d2565b830182620007cf565b50505b505050565b5f82821c905092915050565b5f620008625f198460080262000845565b1980831691505092915050565b5f6200087c838362000851565b9150826002028217905092915050565b620008978262000628565b67ffffffffffffffff811115620008b357620008b262000632565b5b620008bf82546200068c565b620008cc828285620007f5565b5f60209050601f83116001811462000902575f8415620008ed578287015190505b620008f985826200086f565b86555062000968565b601f1984166200091286620006c0565b5f5b828110156200093b5784890151825560018201915060208501945060208101905062000914565b868310156200095b578489015162000957601f89168262000851565b8355505b6001600288020188555050505b505050505050565b6200097b81620005b6565b82525050565b5f602082019050620009965f83018462000970565b92915050565b5f82825260208201905092915050565b7f496e76616c6964207472656173757279000000000000000000000000000000005f82015250565b5f620009e26010836200099c565b9150620009ef82620009ac565b602082019050919050565b5f6020820190508181035f83015262000a1381620009d4565b9050919050565b7f4e487b71000000000000000000000000000000000000000000000000000000005f52601160045260245ffd5b5f62000a538262000742565b915062000a608362000742565b925082820190508082111562000a7b5762000a7a62000a1a565b5b92915050565b62000a8c8162000742565b82525050565b5f60608201905062000aa75f83018662000970565b62000ab6602083018562000a81565b62000ac5604083018462000a81565b949350505050565b5f60208201905062000ae25f83018462000a81565b92915050565b611b638062000af65f395ff3fe608060405234801561000f575f80fd5b5060043610610156575f3560e01c806370a08231116100c1578063a9059cbb1161007a578063a9059cbb146103b7578063d1d0fc57146103e7578063dd62ed3e14610405578063de5f72fd14610435578063f0f442601461043f578063f2fde38b1461045b57610156565b806370a0823114610305578063715018a614610335578063766976401461033f5780637d1d5d191461035d5780638da5cb5b1461037b57806395d89b411461039957610156565b806340c10f191161011357806340c10f191461023057806342966c681461024c57806361d027b314610268578063645b4d6b146102865780636dc35dc6146102b75780636ea5ef6f146102e757610156565b8063063e23571461015a57806306fdde0314610176578063095ea7b31461019457806318160ddd146101c457806323b872dd146101e2578063313ce56714610212575b5f80fd5b610174600480360381019061016f91906114af565b610477565b005b61017e6105a4565b60405161018b9190611584565b60405180910390f35b6101ae60048036038101906101a99190611631565b610634565b6040516101bb9190611689565b60405180910390f35b6101cc610656565b6040516101d991906116b1565b60405180910390f35b6101fc60048036038101906101f791906116ca565b61065f565b6040516102099190611689565b60405180910390f35b61021a61068d565b6040516102279190611735565b60405180910390f35b61024a60048036038101906102459190611631565b610695565b005b6102666004803603810190610261919061174e565b6106ab565b005b6102706106b8565b60405161027d9190611788565b60405180910390f35b6102a0600480360381019061029b91906117a1565b6106dd565b6040516102ae9291906117cc565b60405180910390f35b6102d160048036038101906102cc91906117a1565b610763565b6040516102de91906116b1565b60405180910390f35b6102ef610778565b6040516102fc91906116b1565b60405180910390f35b61031f600480360381019061031a91906117a1565b610785565b60405161032c91906116b1565b60405180910390f35b61033d6107ca565b005b6103476107dd565b60405161035491906116b1565b60405180910390f35b6103656107ea565b60405161037291906116b1565b60405180910390f35b6103836107f0565b6040516103909190611788565b60405180910390f35b6103a1610818565b6040516103ae9190611584565b60405180910390f35b6103d160048036038101906103cc9190611631565b6108a8565b6040516103de9190611689565b60405180910390f35b6103ef6108ca565b6040516103fc91906116b1565b60405180910390f35b61041f600480360381019061041a91906117f3565b6108d0565b60405161042c91906116b1565b60405180910390f35b61043d610952565b005b610459600480360381019061045491906117a1565b610abd565b005b610475600480360381019061047091906117a1565b610bf6565b005b5f82829050116104bc576040517f08c379a00000000000000000000000000000000000000000000000000000000081526004016104b39061187b565b60405180910390fd5b6802b5e3af16b18800006104cf33610785565b1015610510576040517f08c379a0000000000000000000000000000000000000000000000000000000008152600401610507906118e3565b60405180910390fd5b6105453360065f9054906101000a900473ffffffffffffffffffffffffffffffffffffffff166802b5e3af16b1880000610c7a565b3373ffffffffffffffffffffffffffffffffffffffff167f8fceb7fe6ec2594dee64878c9a9cb560d9259e9906f55c92f71b9dbd744b719e83836802b5e3af16b18800006040516105989392919061193b565b60405180910390a25050565b6060600380546105b390611998565b80601f01602080910402602001604051908101604052809291908181526020018280546105df90611998565b801561062a5780601f106106015761010080835404028352916020019161062a565b820191905f5260205f20905b81548152906001019060200180831161060d57829003601f168201915b5050505050905090565b5f8061063e610d6a565b905061064b818585610d71565b600191505092915050565b5f600254905090565b5f80610669610d6a565b9050610676858285610d83565b610681858585610c7a565b60019150509392505050565b5f6012905090565b61069d610e16565b6106a78282610e9d565b5050565b6106b53382610f1c565b50565b60065f9054906101000a900473ffffffffffffffffffffffffffffffffffffffff1681565b5f805f60075f8573ffffffffffffffffffffffffffffffffffffffff1673ffffffffffffffffffffffffffffffffffffffff1681526020019081526020015f205490505f811461073a57610e108161073591906119f5565b61073e565b610e105b91505f81148061075b5750610e108161075791906119f5565b4210155b925050915091565b6007602052805f5260405f205f915090505481565b6802b5e3af16b188000081565b5f805f8373ffffffffffffffffffffffffffffffffffffffff1673ffffffffffffffffffffffffffffffffffffffff1681526020019081526020015f20549050919050565b6107d2610e16565b6107db5f610f9b565b565b683635c9adc5dea0000081565b610e1081565b5f60055f9054906101000a900473ffffffffffffffffffffffffffffffffffffffff16905090565b60606004805461082790611998565b80601f016020809104026020016040519081016040528092919081815260200182805461085390611998565b801561089e5780601f106108755761010080835404028352916020019161089e565b820191905f5260205f20905b81548152906001019060200180831161088157829003601f168201915b5050505050905090565b5f806108b2610d6a565b90506108bf818585610c7a565b600191505092915050565b60085481565b5f60015f8473ffffffffffffffffffffffffffffffffffffffff1673ffffffffffffffffffffffffffffffffffffffff1681526020019081526020015f205f8373ffffffffffffffffffffffffffffffffffffffff1673ffffffffffffffffffffffffffffffffffffffff1681526020019081526020015f2054905092915050565b5f60075f3373ffffffffffffffffffffffffffffffffffffffff1673ffffffffffffffffffffffffffffffffffffffff1681526020019081526020015f205490505f8114806109ae5750610e10816109aa91906119f5565b4210155b6109ed576040517f08c379a00000000000000000000000000000000000000000000000000000000081526004016109e490611a72565b60405180910390fd5b4260075f3373ffffffffffffffffffffffffffffffffffffffff1673ffffffffffffffffffffffffffffffffffffffff1681526020019081526020015f2081905550683635c9adc5dea0000060085f828254610a4991906119f5565b92505081905550610a6333683635c9adc5dea00000610e9d565b3373ffffffffffffffffffffffffffffffffffffffff167fc471df7d13ab46c73ec6eb2da0f35f84077f20d50243ba09a714b82cffc54de9683635c9adc5dea00000604051610ab291906116b1565b60405180910390a250565b610ac5610e16565b5f73ffffffffffffffffffffffffffffffffffffffff168173ffffffffffffffffffffffffffffffffffffffff1603610b33576040517f08c379a0000000000000000000000000000000000000000000000000000000008152600401610b2a90611ada565b60405180910390fd5b5f60065f9054906101000a900473ffffffffffffffffffffffffffffffffffffffff1690508160065f6101000a81548173ffffffffffffffffffffffffffffffffffffffff021916908373ffffffffffffffffffffffffffffffffffffffff1602179055508173ffffffffffffffffffffffffffffffffffffffff168173ffffffffffffffffffffffffffffffffffffffff167f4ab5be82436d353e61ca18726e984e561f5c1cc7c6d38b29d2553c790434705a60405160405180910390a35050565b610bfe610e16565b5f73ffffffffffffffffffffffffffffffffffffffff168173ffffffffffffffffffffffffffffffffffffffff1603610c6e575f6040517f1e4fbdf7000000000000000000000000000000000000000000000000000000008152600401610c659190611788565b60405180910390fd5b610c7781610f9b565b50565b5f73ffffffffffffffffffffffffffffffffffffffff168373ffffffffffffffffffffffffffffffffffffffff1603610cea575f6040517f96c6fd1e000000000000000000000000000000000000000000000000000000008152600401610ce19190611788565b60405180910390fd5b5f73ffffffffffffffffffffffffffffffffffffffff168273ffffffffffffffffffffffffffffffffffffffff1603610d5a575f6040517fec442f05000000000000000000000000000000000000000000000000000000008152600401610d519190611788565b60405180910390fd5b610d6583838361105e565b505050565b5f33905090565b610d7e8383836001611277565b505050565b5f610d8e84846108d0565b90507fffffffffffffffffffffffffffffffffffffffffffffffffffffffffffffffff811015610e105781811015610e01578281836040517ffb8f41b2000000000000000000000000000000000000000000000000000000008152600401610df893929190611af8565b60405180910390fd5b610e0f84848484035f611277565b5b50505050565b610e1e610d6a565b73ffffffffffffffffffffffffffffffffffffffff16610e3c6107f0565b73ffffffffffffffffffffffffffffffffffffffff1614610e9b57610e5f610d6a565b6040517f118cdaa7000000000000000000000000000000000000000000000000000000008152600401610e929190611788565b60405180910390fd5b565b5f73ffffffffffffffffffffffffffffffffffffffff168273ffffffffffffffffffffffffffffffffffffffff1603610f0d575f6040517fec442f05000000000000000000000000000000000000000000000000000000008152600401610f049190611788565b60405180910390fd5b610f185f838361105e565b5050565b5f73ffffffffffffffffffffffffffffffffffffffff168273ffffffffffffffffffffffffffffffffffffffff1603610f8c575f6040517f96c6fd1e000000000000000000000000000000000000000000000000000000008152600401610f839190611788565b60405180910390fd5b610f97825f8361105e565b5050565b5f60055f9054906101000a900473ffffffffffffffffffffffffffffffffffffffff1690508160055f6101000a81548173ffffffffffffffffffffffffffffffffffffffff021916908373ffffffffffffffffffffffffffffffffffffffff1602179055508173ffffffffffffffffffffffffffffffffffffffff168173ffffffffffffffffffffffffffffffffffffffff167f8be0079c531659141344cd1fd0a4f28419497f9722a3daafe3b4186f6b6457e060405160405180910390a35050565b5f73ffffffffffffffffffffffffffffffffffffffff168373ffffffffffffffffffffffffffffffffffffffff16036110ae578060025f8282546110a291906119f5565b9250508190555061117c565b5f805f8573ffffffffffffffffffffffffffffffffffffffff1673ffffffffffffffffffffffffffffffffffffffff1681526020019081526020015f2054905081811015611137578381836040517fe450d38c00000000000000000000000000000000000000000000000000000000815260040161112e93929190611af8565b60405180910390fd5b8181035f808673ffffffffffffffffffffffffffffffffffffffff1673ffffffffffffffffffffffffffffffffffffffff1681526020019081526020015f2081905550505b5f73ffffffffffffffffffffffffffffffffffffffff168273ffffffffffffffffffffffffffffffffffffffff16036111c3578060025f828254039250508190555061120d565b805f808473ffffffffffffffffffffffffffffffffffffffff1673ffffffffffffffffffffffffffffffffffffffff1681526020019081526020015f205f82825401925050819055505b8173ffffffffffffffffffffffffffffffffffffffff168373ffffffffffffffffffffffffffffffffffffffff167fddf252ad1be2c89b69c2b068fc378daa952ba7f163c4a11628f55a4df523b3ef8360405161126a91906116b1565b60405180910390a3505050565b5f73ffffffffffffffffffffffffffffffffffffffff168473ffffffffffffffffffffffffffffffffffffffff16036112e7575f6040517fe602df050000000000000000000000000000000000000000000000000000000081526004016112de9190611788565b60405180910390fd5b5f73ffffffffffffffffffffffffffffffffffffffff168373ffffffffffffffffffffffffffffffffffffffff1603611357575f6040517f94280d6200000000000000000000000000000000000000000000000000000000815260040161134e9190611788565b60405180910390fd5b8160015f8673ffffffffffffffffffffffffffffffffffffffff1673ffffffffffffffffffffffffffffffffffffffff1681526020019081526020015f205f8573ffffffffffffffffffffffffffffffffffffffff1673ffffffffffffffffffffffffffffffffffffffff1681526020019081526020015f20819055508015611440578273ffffffffffffffffffffffffffffffffffffffff168473ffffffffffffffffffffffffffffffffffffffff167f8c5be1e5ebec7d5bd14f71427d1e84f3dd0314c0f7b2291e5b200ac8c7c3b9258460405161143791906116b1565b60405180910390a35b50505050565b5f80fd5b5f80fd5b5f80fd5b5f80fd5b5f80fd5b5f8083601f84011261146f5761146e61144e565b5b8235905067ffffffffffffffff81111561148c5761148b611452565b5b6020830191508360018202830111156114a8576114a7611456565b5b9250929050565b5f80602083850312156114c5576114c4611446565b5b5f83013567ffffffffffffffff8111156114e2576114e161144a565b5b6114ee8582860161145a565b92509250509250929050565b5f81519050919050565b5f82825260208201905092915050565b5f5b83811015611531578082015181840152602081019050611516565b5f8484015250505050565b5f601f19601f8301169050919050565b5f611556826114fa565b6115608185611504565b9350611570818560208601611514565b6115798161153c565b840191505092915050565b5f6020820190508181035f83015261159c818461154c565b905092915050565b5f73ffffffffffffffffffffffffffffffffffffffff82169050919050565b5f6115cd826115a4565b9050919050565b6115dd816115c3565b81146115e7575f80fd5b50565b5f813590506115f8816115d4565b92915050565b5f819050919050565b611610816115fe565b811461161a575f80fd5b50565b5f8135905061162b81611607565b92915050565b5f806040838503121561164757611646611446565b5b5f611654858286016115ea565b92505060206116658582860161161d565b9150509250929050565b5f8115159050919050565b6116838161166f565b82525050565b5f60208201905061169c5f83018461167a565b92915050565b6116ab816115fe565b82525050565b5f6020820190506116c45f8301846116a2565b92915050565b5f805f606084860312156116e1576116e0611446565b5b5f6116ee868287016115ea565b93505060206116ff868287016115ea565b92505060406117108682870161161d565b9150509250925092565b5f60ff82169050919050565b61172f8161171a565b82525050565b5f6020820190506117485f830184611726565b92915050565b5f6020828403121561176357611762611446565b5b5f6117708482850161161d565b91505092915050565b611782816115c3565b82525050565b5f60208201905061179b5f830184611779565b92915050565b5f602082840312156117b6576117b5611446565b5b5f6117c3848285016115ea565b91505092915050565b5f6040820190506117df5f83018561167a565b6117ec60208301846116a2565b9392505050565b5f806040838503121561180957611808611446565b5b5f611816858286016115ea565b9250506020611827858286016115ea565b9150509250929050565b7f456d70747920454e53206e616d650000000000000000000000000000000000005f82015250565b5f611865600e83611504565b915061187082611831565b602082019050919050565b5f6020820190508181035f83015261189281611859565b9050919050565b7f496e73756666696369656e742062616c616e63650000000000000000000000005f82015250565b5f6118cd601483611504565b91506118d882611899565b602082019050919050565b5f6020820190508181035f8301526118fa816118c1565b9050919050565b828183375f83830152505050565b5f61191a8385611504565b9350611927838584611901565b6119308361153c565b840190509392505050565b5f6040820190508181035f83015261195481858761190f565b905061196360208301846116a2565b949350505050565b7f4e487b71000000000000000000000000000000000000000000000000000000005f52602260045260245ffd5b5f60028204905060018216806119af57607f821691505b6020821081036119c2576119c161196b565b5b50919050565b7f4e487b71000000000000000000000000000000000000000000000000000000005f52601160045260245ffd5b5f6119ff826115fe565b9150611a0a836115fe565b9250828201905080821115611a2257611a216119c8565b5b92915050565b7f46617563657420636f6f6c646f776e20616374697665000000000000000000005f82015250565b5f611a5c601683611504565b9150611a6782611a28565b602082019050919050565b5f6020820190508181035f830152611a8981611a50565b9050919050565b7f496e76616c6964207472656173757279000000000000000000000000000000005f82015250565b5f611ac4601083611504565b9150611acf82611a90565b602082019050919050565b5f6020820190508181035f830152611af181611ab8565b9050919050565b5f606082019050611b0b5f830186611779565b611b1860208301856116a2565b611b2560408301846116a2565b94935050505056fea2646970667358221220d0031b1f9d5acf08c1c7028eac57a9e9b076a095ad333d0230be11b0e3c9937464736f6c63430008180033","linkReferences":{}},"methodIdentifiers":{"AGENT_DEPOSIT()":"6ea5ef6f","FAUCET_AMOUNT()":"76697640","FAUCET_COOLDOWN()":"7d1d5d19","allowance(address,address)":"dd62ed3e","approve(address,uint256)":"095ea7b3","balanceOf(address)":"70a08231","burn(uint256)":"42966c68","decimals()":"313ce567","depositForAgent(string)":"063e2357","faucet()":"de5f72fd","faucetStatus(address)":"645b4d6b","lastFaucetCall(address)":"6dc35dc6","mint(address,uint256)":"40c10f19","name()":"06fdde03","owner()":"8da5cb5b","renounceOwnership()":"715018a6","setTreasury(address)":"f0f44260","symbol()":"95d89b41","totalFaucetDistributed()":"d1d0fc57","totalSupply()":"18160ddd","transfer(address,uint256)":"a9059cbb","transferFrom(address,address,uint256)":"23b872dd","transferOwnership(address)":"f2fde38b","treasury()":"61d027b3"},"id":25}