{"abi":[{"type":"constructor","inputs":[{"name":"_treasury","type":"address","internalType":"address"}],"stateMutability":"nonpayable"},{"type":"function","name":"AGENT_DEPOSIT","inputs":[],"outputs":[{"name":"","type":"uint256","internalType":"uint256"}],"stateMutability":"view"},{"type":"function","name":"FAUCET_AMOUNT","inputs":[],"outputs":[{"name":"","type":"uint256","internalType":"uint256"}],"stateMutability":"view"},{"type":"function","name":"FAUCET_COOLDOWN","inputs":[],"outputs":[{"name":"","type":"uint256","internalType":"uint256"}],"stateMutability":"view"},{"type":"function","name":"allowance","inputs":[{"name":"owner","type":"address","internalType":"address"},{"name":"spender","type":"address","internalType":"address"}],"outputs":[{"name":"","type":"uint256","internalType":"uint256"}],"stateMutability":"view"},{"type":"function","name":"approve","inputs":[{"name":"spender","type":"address","internalType":"address"},{"name":"value","type":"uint256","internalType":"uint256"}],"outputs":[{"name":"","type":"bool","internalType":"bool"}],"stateMutability":"nonpayable"},{"type":"function","name":"balanceOf","inputs":[{"name":"account","type":"address","internalType":"address"}],"outputs":[{"name":"","type":"uint256","internalType":"uint256"}],"stateMutability":"view"},{"type":"function","name":"burn","inputs":[{"name":"amount","type":"uint256","internalType":"uint256"}],"outputs":[],"stateMutability":"nonpayable"},{"type":"function","name":"decimals","inputs":[],"outputs":[{"name":"","type":"uint8","internalType":"uint8"}],"stateMutability":"view"},{"type":"function","name":"depositForAgent","inputs":[{"name":"ensName","type":"string","internalType":"string"}],"outputs":[],"stateMutability":"nonpayable"},{"type":"function","name":"faucet","inputs":[],"outputs":[],"stateMutability":"nonpayable"},{"type":"function","name":"faucetStatus","inputs":[{"name":"user","type":"address","internalType":"address"}],"outputs":[{"name":"available","type":"bool","internalType":"bool"},{"name":"nextAvailable","type":"uint256","internalType":"uint256"}],"stateMutability":"view"},{"type":"function","name":"lastFaucetCall","inputs":[{"name":"","type":"address","internalType":"address"}],"outputs":[{"name":"","type":"uint256","internalType":"uint256"}],"stateMutability":"view"},{"type":"function","name":"mint","inputs":[{"name":"to","type":"address","internalType":"address"},{"name":"amount","type":"uint256","internalType":"uint256"}],"outputs":[],"stateMutability":"nonpayable"},{"type":"function","name":"name","inputs":[],"outputs":[{"name":"","type":"string","internalType":"string"}],"stateMutability":"view"},{"type":"function","name":"owner","inputs":[],"outputs":[{"name":"","type":"address","internalType":"address"}],"stateMutability":"view"},{"type":"function","name":"renounceOwnership","inputs":[],"outputs":[],"stateMutability":"nonpayable"},{"type":"function","name":"setTreasury","inputs":[{"name":"newTreasury","type":"address","internalType":"address"}],"outputs":[],"stateMutability":"nonpayable"},{"type":"function","name":"symbol","inputs":[],"outputs":[{"name":"","type":"string","internalType":"string"}],"stateMutability":"view"},{"type":"function","name":"totalFaucetDistributed","inputs":[],"outputs":[{"name":"","type":"uint256","internalType":"uint256"}],"stateMutability":"view"},{"type":"function","name":"totalSupply","inputs":[],"outputs":[{"name":"","type":"uint256","internalType":"uint256"}],"stateMutability":"view"},{"type":"function","name":"transfer","inputs":[{"name":"to","type":"address","internalType":"address"},{"name":"value","type":"uint256","internalType":"uint256"}],"outputs":[{"name":"","type":"bool","internalType":"bool"}],"stateMutability":"nonpayable"},{"type":"function","name":"transferFrom","inputs":[{"name":"from","type":"address","internalType":"address"},{"name":"to","type":"address","internalType":"address"},{"name":"value","type":"uint256","internalType":"uint256"}],"outputs":[{"name":"","type":"bool","internalType":"bool"}],"stateMutability":"nonpayable"},{"type":"function","name":"transferOwnership","inputs":[{"name":"newOwner","type":"address","internalType":"address"}],"outputs":[],"stateMutability":"nonpayable"},{"type":"function","name":"treasury","inputs":[],"outputs":[{"name":"","type":"address","internalType":"address"}],"stateMutability":"view"},{"type":"event","name":"AgentDeposit","inputs":[{"name":"user","type":"address","indexed":true,"internalType":"address"},{"name":"ensName","type":"string","indexed":false,"internalType":"string"},{"name":"amount","type":"uint256","indexed":false,"internalType":"uint256"}],"anonymous":false},{"type":"event","name":"Approval","inputs":[{"name":"owner","type":"address","indexed":true,"internalType":"address"},{"name":"spender","type":"address","indexed":true,"internalType":"address"},{"name":"value","type":"uint256","indexed":false,"internalType":"uint256"}],"anonymous":false},{"type":"event","name":"FaucetUsed","inputs":[{"name":"user","type":"address","indexed":true,"internalType":"address"},{"name":"amount","type":"uint256","indexed":false,"internalType":"uint256"}],"anonymous":false},{"type":"event","name":"OwnershipTransferred","inputs":[{"name":"previousOwner","type":"address","indexed":true,"internalType":"address"},{"name":"newOwner","type":"address","indexed":true,"internalType":"address"}],"anonymous":false},{"type":"event","name":"Transfer","inputs":[{"name":"from","type":"address","indexed":true,"internalType":"address"},{"name":"to","type":"address","indexed":true,"internalType":"address"},{"name":"value","type":"uint256","indexed":false,"internalType":"uint256"}],"anonymous":false},{"type":"event","name":"TreasuryUpdated","inputs":[{"name":"oldTreasury","type":"address","indexed":true,"internalType":"address"},{"name":"newTreasury","type":"address","indexed":true,"internalType":"address"}],"anonymous":false},{"type":"error","name":"ERC20InsufficientAllowance","inputs":[{"name":"spender","type":"address","internalType":"address"},{"name":"allowance","type":"uint256","internalType":"uint256"},{"name":"needed","type":"uint256","internalType":"uint256"}]},{"type":"error","name":"ERC20InsufficientBalance","inputs":[{"name":"sender","type":"address","internalType":"address"},{"name":"balance","type":"uint256","internalType":"uint256"},{"name":"needed","type":"uint256","internalType":"uint256"}]},{"type":"error","name":"ERC20InvalidApprover","inputs":[{"name":"approver","type":"address","internalType":"address"}]},{"type":"error","name":"ERC20InvalidReceiver","inputs":[{"name":"receiver","type":"address","internalType":"address"}]},{"type":"error","name":"ERC20InvalidSender","inputs":[{"name":"sender","type":"address","internalType":"address"}]},{"type":"error","name":"ERC20InvalidSpender","inputs":[{"name":"spender","type":"address","internalType":"address"}]},{"type":"error","name":"OwnableInvalidOwner","inputs":[{"name":"owner","type":"address","internalType":"address"}]},{"type":"error","name":"OwnableUnauthorizedAccount","inputs":[{"name":"account","type":"address","internalType":"address"}]}],"bytecode":{"object":"0x608060405234801562000010575f80fd5b50604051620012d3380380620012d3833981016040819052620000339162000317565b336040518060400160405280601181526020017020b3b2b73a213930b731b4102a37b5b2b760791b8152506040518060400160405280600381526020016210509560ea1b81525081600390816200008b9190620003e4565b5060046200009a8282620003e4565b5050506001600160a01b038116620000cc57604051631e4fbdf760e01b81525f60048201526024015b60405180910390fd5b620000d7816200015b565b506001600160a01b038116620001235760405162461bcd60e51b815260206004820152601060248201526f496e76616c696420747265617375727960801b6044820152606401620000c3565b600680546001600160a01b0319166001600160a01b038316179055620001543369152d02c7e14af6800000620001ac565b50620004d6565b600580546001600160a01b038381166001600160a01b0319831681179093556040519116919082907f8be0079c531659141344cd1fd0a4f28419497f9722a3daafe3b4186f6b6457e0905f90a35050565b6001600160a01b038216620001d75760405163ec442f0560e01b81525f6004820152602401620000c3565b620001e45f8383620001e8565b5050565b6001600160a01b03831662000216578060025f8282546200020a9190620004b0565b90915550620002889050565b6001600160a01b0383165f90815260208190526040902054818110156200026a5760405163391434e360e21b81526001600160a01b03851660048201526024810182905260448101839052606401620000c3565b6001600160a01b0384165f9081526020819052604090209082900390555b6001600160a01b038216620002a657600280548290039055620002c4565b6001600160a01b0382165f9081526020819052604090208054820190555b816001600160a01b0316836001600160a01b03167fddf252ad1be2c89b69c2b068fc378daa952ba7f163c4a11628f55a4df523b3ef836040516200030a91815260200190565b60405180910390a3505050565b5f6020828403121562000328575f80fd5b81516001600160a01b03811681146200033f575f80fd5b9392505050565b634e487b7160e01b5f52604160045260245ffd5b600181811c908216806200036f57607f821691505b6020821081036200038e57634e487b7160e01b5f52602260045260245ffd5b50919050565b601f821115620003df57805f5260205f20601f840160051c81016020851015620003bb5750805b601f840160051c820191505b81811015620003dc575f8155600101620003c7565b50505b505050565b81516001600160401b0381111562000400576200040062000346565b62000418816200041184546200035a565b8462000394565b602080601f8311600181146200044e575f8415620004365750858301515b5f19600386901b1c1916600185901b178555620004a8565b5f85815260208120601f198616915b828110156200047e578886015182559484019460019091019084016200045d565b50858210156200049c57878501515f19600388901b60f8161c191681555b505060018460011b0185555b505050505050565b80820180821115620004d057634e487b7160e01b5f52601160045260245ffd5b92915050565b610def80620004e45f395ff3fe608060405234801561000f575f80fd5b5060043610610153575f3560e01c806370a08231116100bf578063a9059cbb11610079578063a9059cbb146102ed578063d1d0fc5714610300578063dd62ed3e14610309578063de5f72fd14610341578063f0f4426014610349578063f2fde38b1461035c575f80fd5b806370a082311461028b578063715018a6146102b357806376697640146102bb5780637d1d5d19146102cb5780638da5cb5b146102d457806395d89b41146102e5575f80fd5b806340c10f191161011057806340c10f19146101e157806342966c68146101f457806361d027b314610207578063645b4d6b146102325780636dc35dc61461025c5780636ea5ef6f1461027b575f80fd5b8063063e23571461015757806306fdde031461016c578063095ea7b31461018a57806318160ddd146101ad57806323b872dd146101bf578063313ce567146101d2575b5f80fd5b61016a610165366004610b8f565b61036f565b005b610174610483565b6040516101819190610bfb565b60405180910390f35b61019d610198366004610c62565b610513565b6040519015158152602001610181565b6002545b604051908152602001610181565b61019d6101cd366004610c8a565b61052c565b60405160128152602001610181565b61016a6101ef366004610c62565b61054f565b61016a610202366004610cc3565b610565565b60065461021a906001600160a01b031681565b6040516001600160a01b039091168152602001610181565b610245610240366004610cda565b610572565b604080519215158352602083019190915201610181565b6101b161026a366004610cda565b60076020525f908152604090205481565b6101b16802b5e3af16b188000081565b6101b1610299366004610cda565b6001600160a01b03165f9081526020819052604090205490565b61016a6105c9565b6101b1683635c9adc5dea0000081565b6101b1610e1081565b6005546001600160a01b031661021a565b6101746105dc565b61019d6102fb366004610c62565b6105eb565b6101b160085481565b6101b1610317366004610cfa565b6001600160a01b039182165f90815260016020908152604080832093909416825291909152205490565b61016a6105f8565b61016a610357366004610cda565b6106ea565b61016a61036a366004610cda565b61078c565b806103b25760405162461bcd60e51b815260206004820152600e60248201526d456d70747920454e53206e616d6560901b60448201526064015b60405180910390fd5b335f908152602081905260409020546802b5e3af16b188000011156104105760405162461bcd60e51b8152602060048201526014602482015273496e73756666696369656e742062616c616e636560601b60448201526064016103a9565b6006546104319033906001600160a01b03166802b5e3af16b18800006107c6565b336001600160a01b03167f8fceb7fe6ec2594dee64878c9a9cb560d9259e9906f55c92f71b9dbd744b719e83836802b5e3af16b188000060405161047793929190610d2b565b60405180910390a25050565b60606003805461049290610d62565b80601f01602080910402602001604051908101604052809291908181526020018280546104be90610d62565b80156105095780601f106104e057610100808354040283529160200191610509565b820191905f5260205f20905b8154815290600101906020018083116104ec57829003601f168201915b5050505050905090565b5f33610520818585610828565b60019150505b92915050565b5f33610539858285610835565b6105448585856107c6565b506001949350505050565b6105576108b1565b61056182826108de565b5050565b61056f3382610912565b50565b6001600160a01b0381165f90815260076020526040812054819080156105a35761059e610e1082610d9a565b6105a7565b610e105b91508015806105c157506105bd610e1082610d9a565b4210155b925050915091565b6105d16108b1565b6105da5f610946565b565b60606004805461049290610d62565b5f336105208185856107c6565b335f9081526007602052604090205480158061061f575061061b610e1082610d9a565b4210155b6106645760405162461bcd60e51b815260206004820152601660248201527546617563657420636f6f6c646f776e2061637469766560501b60448201526064016103a9565b335f90815260076020526040812042905560088054683635c9adc5dea000009290610690908490610d9a565b909155506106a9905033683635c9adc5dea000006108de565b604051683635c9adc5dea00000815233907fc471df7d13ab46c73ec6eb2da0f35f84077f20d50243ba09a714b82cffc54de99060200160405180910390a250565b6106f26108b1565b6001600160a01b03811661073b5760405162461bcd60e51b815260206004820152601060248201526f496e76616c696420747265617375727960801b60448201526064016103a9565b600680546001600160a01b038381166001600160a01b0319831681179093556040519116919082907f4ab5be82436d353e61ca18726e984e561f5c1cc7c6d38b29d2553c790434705a905f90a35050565b6107946108b1565b6001600160a01b0381166107bd57604051631e4fbdf760e01b81525f60048201526024016103a9565b61056f81610946565b6001600160a01b0383166107ef57604051634b637e8f60e11b81525f60048201526024016103a9565b6001600160a01b0382166108185760405163ec442f0560e01b81525f60048201526024016103a9565b610823838383610997565b505050565b6108238383836001610abd565b6001600160a01b038381165f908152600160209081526040808320938616835292905220545f198110156108ab578181101561089d57604051637dc7a0d960e11b81526001600160a01b038416600482015260248101829052604481018390526064016103a9565b6108ab84848484035f610abd565b50505050565b6005546001600160a01b031633146105da5760405163118cdaa760e01b81523360048201526024016103a9565b6001600160a01b0382166109075760405163ec442f0560e01b81525f60048201526024016103a9565b6105615f8383610997565b6001600160a01b03821661093b57604051634b637e8f60e11b81525f60048201526024016103a9565b610561825f83610997565b600580546001600160a01b038381166001600160a01b0319831681179093556040519116919082907f8be0079c531659141344cd1fd0a4f28419497f9722a3daafe3b4186f6b6457e0905f90a35050565b6001600160a01b0383166109c1578060025f8282546109b69190610d9a565b90915550610a319050565b6001600160a01b0383165f9081526020819052604090205481811015610a135760405163391434e360e21b81526001600160a01b038516600482015260248101829052604481018390526064016103a9565b6001600160a01b0384165f9081526020819052604090209082900390555b6001600160a01b038216610a4d57600280548290039055610a6b565b6001600160a01b0382165f9081526020819052604090208054820190555b816001600160a01b0316836001600160a01b03167fddf252ad1be2c89b69c2b068fc378daa952ba7f163c4a11628f55a4df523b3ef83604051610ab091815260200190565b60405180910390a3505050565b6001600160a01b038416610ae65760405163e602df0560e01b81525f60048201526024016103a9565b6001600160a01b038316610b0f57604051634a1406b160e11b81525f60048201526024016103a9565b6001600160a01b038085165f90815260016020908152604080832093871683529290522082905580156108ab57826001600160a01b0316846001600160a01b03167f8c5be1e5ebec7d5bd14f71427d1e84f3dd0314c0f7b2291e5b200ac8c7c3b92584604051610b8191815260200190565b60405180910390a350505050565b5f8060208385031215610ba0575f80fd5b823567ffffffffffffffff80821115610bb7575f80fd5b818501915085601f830112610bca575f80fd5b813581811115610bd8575f80fd5b866020828501011115610be9575f80fd5b60209290920196919550909350505050565b5f602080835283518060208501525f5b81811015610c2757858101830151858201604001528201610c0b565b505f604082860101526040601f19601f8301168501019250505092915050565b80356001600160a01b0381168114610c5d575f80fd5b919050565b5f8060408385031215610c73575f80fd5b610c7c83610c47565b946020939093013593505050565b5f805f60608486031215610c9c575f80fd5b610ca584610c47565b9250610cb360208501610c47565b9150604084013590509250925092565b5f60208284031215610cd3575f80fd5b5035919050565b5f60208284031215610cea575f80fd5b610cf382610c47565b9392505050565b5f8060408385031215610d0b575f80fd5b610d1483610c47565b9150610d2260208401610c47565b90509250929050565b60408152826040820152828460608301375f606084830101525f6060601f19601f8601168301019050826020830152949350505050565b600181811c90821680610d7657607f821691505b602082108103610d9457634e487b7160e01b5f52602260045260245ffd5b50919050565b8082018082111561052657634e487b7160e01b5f52601160045260245ffdfea2646970667358221220f340f43d191b0fb7641d3647972baa9649c91984cc185b6c832cbed6a2a5538264736f6c63430008180033","linkReferences":{}},"methodIdentifiers":{"AGENT_DEPOSIT()":"6ea5ef6f","FAUCET_AMOUNT()":"76697640","FAUCET_COOLDOWN()":"7d1d5d19","allowance(address,address)":"dd62ed3e","approve(address,uint256)":"095ea7b3","balanceOf(address)":"70a08231","burn(uint256)":"42966c68","decimals()":"313ce567","depositForAgent(string)":"063e2357","faucet()":"de5f72fd","faucetStatus(address)":"645b4d6b","lastFaucetCall(address)":"6dc35dc6","mint(address,uint256)":"40c10f19","name()":"06fdde03","owner()":"8da5cb5b","renounceOwnership()":"715018a6","setTreasury(address)":"f0f44260","symbol()":"95d89b41","totalFaucetDistributed()":"d1d0fc57","totalSupply()":"18160ddd","transfer(address,uint256)":"a9059cbb","transferFrom(address,address,uint256)":"23b872dd","transferOwnership(address)":"f2fde38b","treasury()":"61d027b3"},"id":29}